:020000040800F2
:1000000098C40120A9220008750B0008770B00088E
:100010007B0B00087F0B0008830B0008000000002A
:10002000000000000000000000000000870B000836
:10003000890B0008000000008B0B00088D0B0008E6
:10004000C3220008C3220008C3220008C3220008FC
:10005000C3220008C3220008C3220008C3220008EC
:10006000C3220008C3220008C3220008C3220008DC
:10007000C3220008C3220008C3220008C3220008CC
:10008000C3220008C3220008C3220008C3220008BC
:10009000C3220008C3220008C3220008C3220008AC
:1000A000C3220008C3220008C3220008C32200089C
:1000B000C51E0008C3220008C3220008C32200088E
:1000C000C3220008C3220008C3220008C32200087C
:1000D000C3220008C3220008C3220008C32200086C
:1000E000C3220008C3220008C3220008C32200085C
:1000F000C3220008C3220008C3220008C32200084C
:10010000C3220008C3220008C3220008C32200083B
:10011000C3220008C3220008C3220008C32200082B
:10012000C3220008C3220008C3220008C32200081B
:10013000C3220008C3220008C3220008C32200080B
:10014000C3220008C3220008C3220008C3220008FB
:10015000C3220008C3220008C3220008C3220008EB
:10016000C3220008C3220008C3220008C3220008DB
:10017000C3220008C3220008C3220008C3220008CB
:10018000C3220008C322000800F002F800F05CF867
:100190000AA090E8000C82448344AAF10107DA45E2
:1001A00001D100F051F8AFF2090EBAE80F0013F0D8
:1001B000010F18BFFB1A43F001031847B474000085
:1001C000D47400000A444FF0000C10F8013B13F007
:1001D000070408BF10F8014B1D1108BF10F8015BA0
:1001E000641E05D010F8016B641E01F8016BF9D193
:1001F00013F0080F1EBF10F8014BAD1C0C1B09D1EA
:100200006D1E58BF01F801CBFAD505E014F8016B5B
:1002100001F8016B6D1EF9D59142D6D370470000ED
:100220000023002400250026103A28BF78C1FBD8FF
:10023000520728BF30C148BF0B6070471FB505F09B
:10024000B9F91FBD10B510BD03F0F6FB1146FFF75D
:10025000F5FF00F095F903F014FC03B4FFF7F2FF8B
:1002600003BC03F017FC000030B589B0FE480068FD
:10027000451E39E0012434E0FC49601C01EB4010CC
:1002800090ED042BB0EE420AF0EE620A084600EB55
:10029000441090ED042BB0EE421AF0EE621A53ECCB
:1002A000102B51EC110B04F08DFF19D2EF4A601C9A
:1002B00002EB40112022684603F04FFBEB4A02EBB1
:1002C00044111346621C03EB4210202203F045FB4D
:1002D000E64901EB44102022694603F03EFB00BFD3
:1002E000641CAC42C8DD6D1E012DC3DA09B030BDFF
:1002F0001FB584B0DC480068401CDB49086004A8D6
:100300000FC801F057FC8DED000B8DED021B9DED2C
:10031000000BD648D449096800EB411080ED000B72
:1003200004A80FC801F046FC8DED000B8DED021BFB
:100330009DED020BCD48CC49096800EB411080EDE2
:10034000020BCA49C84A0698126801EB421188613B
:10035000C648C549096800EB411090ED022BB0EE8C
:10036000421AF0EE621AC148BF49096800EB411019
:1003700090ED002BB0EE420AF0EE620A9FEDBC3B1E
:100380009FEDBD2B01F0A3FCB848B749096800EB0D
:10039000411080ED040B08B010BD7CB5B248046874
:1003A00065E0B24800EB441090ED021BB0EE410A4C
:1003B000F0EE610A51EC100B04F072FDC5B2AB48CF
:1003C00000EB441090ED001BB0EE410AF0EE610A24
:1003D00051EC100B04F064FDC6B22946304601F022
:1003E000D0F9A24800EB441090ED001BB0EE410A9A
:1003F000F0EE610A51EC100B04F052FD05460120AD
:10040000102103232A46CDE900100021084600F000
:100410007FFF964800EB441090ED021BB0EE410ABE
:10042000F0EE610A51EC100B04F03AFD0546012094
:10043000102103232A46CDE9001000216A2000F094
:1004400067FF0120102378220D210090002000F08A
:1004500094FE0120102379220D210090762000F0D7
:100460008CFE00F060FD642001F0FEFE641E012C95
:1004700097DA7CBD2DED048B82B0814890ED0C2B7A
:10048000B0EE421AF0EE621A90ED0E2BB0EE420A78
:10049000F0EE620A53EC112B51EC100B04F0A0FFAC
:1004A00041EC190B9FED770B53EC102B04F0BCFAC9
:1004B00041EC180B04F0C4FC0446204604F01DFD7A
:1004C00041EC180BB0EE480AF0EE680A01F0E4FBCC
:1004D000C5B2012010212B462246CDE90010002193
:1004E000084600F015FF00F01EFD00BFFEE7F0B566
:1004F0008AB00246092300248A4202DD09200AB09C
:10050000F0BD012003E000254DF82050401C0928D3
:10051000F9DD10460DE05D4D05EB0015AD685DF8A9
:1005200025506D1C594E06EB0016B6684DF8265046
:10053000401C8842EFDD012007E05DF82050A54215
:1005400002DD03465DF82040401C0928F5DD184611
:10055000D5E71CB513E001F033FD0446204601F059
:10056000F9FC04460120102103462246CDE9001083
:100570000021084600F0CCFE00F0D5FC00BFEAE701
:100580002DED0C8B86B0A82001F00CFE01F052F886
:1005900001F0AEFA01F0AAFC5321092001F052FC4F
:1005A000532144F61F6001F031FD01F07DFA00F0A7
:1005B000BAFC9FED370B01F081FD4FF47A7001F02A
:1005C00053FE9FED350B01F0A7FD4FF47A7001F05B
:1005D0004BFE9FED2F0BB0EE408AF0EE608A87E075
:1005E00053EC182B9FED2E0B51EC100B04F0F8FE82
:1005F00041EC190B01F0E4FC054601F0ABFC0446AC
:1006000004F07BFC41EC1A0BB0EE480AF0EE680AED
:1006100001F054FD24480068401C2349086051EC57
:100620001A0B04F00DFC19491F4A126801EB021164
:1006300088609FED1E0B53EC102B51EC190B04F04E
:10064000CFFE41EC1D0B9FED1B0B53EC102B04F068
:10065000BBFC41EC1B0B9FED190B53EC102B51EC29
:10066000190B04F0E1F92DE000000020380400200F
:100670000000000000804F400000000000005540D6
:10068000B8BF0020000000000000F03F38810020CB
:10069000000000000000694000000000008046C02B
:1006A00000000000008066400800002000000000FC
:1006B000000000007B14AE47E17AB43F0000000068
:1006C000000020C041EC1C0B53EC1B2B04F0ACF9D8
:1006D000FD4AFE4B1B6802EB031203C29FEDFC0BAD
:1006E00053EC102B51EC180B04F07AFE41EC180B74
:1006F0009FEDF90B53EC102B51EC180B04F062FD3D
:100700007FF66EAF01264BE049F64041F44803F016
:1007100056F901241CE0254604F1310949462846D2
:10072000FFF7E5FE824628460FE000EB8001EC4A29
:1007300002EBC10151F82A10491C00EB8002E84B82
:1007400003EBC20242F82A10401C4845EDDD641C50
:10075000DE4800683138A042DDDA01201BE00922C2
:100760000023012110E000EB8004DD4D05EBC40403
:1007700054F821409C4206DD0A4600EB800405EB5C
:10078000C40454F82130491C0929ECDDCE4901EBA1
:1007900000118A60401CCD4909688842DFDD761C63
:1007A000042EB1DDC84887694FF0010800210246D8
:1007B000C6480068401C02EB0010816002203AE04D
:1007C000C14B03EB00139B68BB4200D132E04146B2
:1007D000421E531A5B1C322B26DDC24B1B685B1C6E
:1007E000C04C236023461B6803EB4303BE4C04EB61
:1007F000C3031F61B44B03EB011393ED000BB94B23
:100800001B6803EB430304EBC30383ED000BAE4B08
:1008100003EB021393ED000BB24B1B6803EB430396
:1008200004EBC30383ED020BA74B03EB00139F689C
:10083000804600BF401CA5490968491C8842BFDDAD
:1008400001249BE004EB4400A74901EBC00090EDBC
:10085000001BB0EE410AF0EE610A51EC100B04F0FF
:10086000EFFA054604EB44009F4901EBC00090ED10
:10087000021BB0EE410AF0EE610A51EC100B04F0DD
:10088000DFFA064604EB4400974901EBC000D0F8BC
:1008900010A0701B00F1010BBAF1090F00D16CE040
:1008A000012C1EDD8F48006884421ADA601E00EBBE
:1008B00040008D4901EBC0000069092811DA601C75
:1008C00000EB400001EBC0000069092809DA05EBE4
:1008D000060909EBD971481004F00FFBCDE90201BC
:1008E00044E0012C1ADD601E00EB40007E4901EB64
:1008F000C0000069092811DABBF1320F0EDC05EBEC
:1009000006094FEAE97109EB91718A10A6F10C0111
:10091000501804F0F2FACDE9020127E071480068AE
:1009200084421ADA601C00EB40006F4901EBC00002
:100930000069092811DABBF1320F0EDC05EB06095C
:100940004FEAE97109EB91718A1005F10C01501819
:1009500004F0D3FACDE9020108E005EB060909EB42
:10096000D971481004F0C9FACDE90201CDF810A000
:1009700002A80FC8FFF7BCFC00BF641C5948006800
:1009800084427FF75FAFFFF76FFC5848006804F0C0
:10099000B4FA41EC180BB0EE480AF0EE680A01F028
:1009A0007BF9C4B2012010212346CDE900104F4845
:1009B0002B2102683D2000F0ABFC00F0B4FAFFF7F9
:1009C000ECFC0124CDE04A4800EB441090ED000B14
:1009D0008DED020B464800EB441090ED020B8DEDBF
:1009E000040B9DED021BB0EE410AF0EE610A51ECE2
:1009F000100B04F055FA05460120102103232A4666
:100A0000CDE900100021084600F082FC9DED041B9A
:100A1000B0EE410AF0EE610A51EC100B04F040FA1E
:100A200005460120102103232A46CDE900100021AC
:100A3000682000F06DFC0120102378220F21009027
:100A4000002000F09AFB0120102379220F21009052
:100A5000762000F092FB00F066FA9DED041B9DED00
:100A6000020B01F082F9B0EE40CAF0EE60CA9FEDD1
:100A7000210B53EC102B51EC1C0B04F0B1FC41EC9E
:100A80001B0B1FEDF60B53EC102B04F09DFA41EC01
:100A9000190B9DED041B9DED020B01F066F9B0EE04
:100AA00040BAF0EE60BA9FED150B53EC102B51ECF1
:100AB0001B0B03F0B9FF41EC1A0B53EC192B03F09D
:100AC000B3FF41EC180B1DE0388100200800002026
:100AD000000000000000D03F00000000000034C013
:100AE000781D012004000020B8BF00200000002075
:100AF000380400200000000000004E40000000000C
:100B000000000000B0EE480AF0EE680A01F004FBB5
:100B100040F2DC5001F0A8FB01F005F840F61C4063
:100B200001F0A2FB00F0D8FF9DED041BB0EE410ADE
:100B3000F0EE610A51EC100B04F0B2F9C5B29DED74
:100B4000021BB0EE410AF0EE610A51EC100B04F00A
:100B5000A7F9C6B22946304600F0D8FE00F0E3F906
:100B6000641C0348006884427FF72DAF00BFFEE796
:100B700000000020704700BFFEE700BFFEE700BF97
:100B8000FEE700BFFEE77047704770477047000000
:100B90000CB50020019000907648006840F4803049
:100BA0007449086000BF7348006800F4003000908A
:100BB0000198401C0190009818B90198B0F5A04F19
:100BC000F1D16C48006800F4003010B101200090B1
:100BD00001E0002000900098012846D1654840308F
:100BE000006840F080506349403108606248006806
:100BF00040F44040604908605E48083000685D4944
:100C0000083108600846006840F400400860084663
:100C1000006840F4A05008605848091F0860081F89
:100C2000006840F08070091F086000BF51480068EC
:100C300000F000700028F9D040F2057050490860BB
:100C40004C480830006820F003004A490831086029
:100C50000846006840F00200086000BF45480830C0
:100C6000006800F00C000828F8D10CBD10B545480C
:100C7000006840F47000434908603E48006840F056
:100C800001003C49086000203A49083108603948B1
:100C900000683D490840374908603C48091D086024
:100CA000081F006820F48020091F086000203149D7
:100CB0000C310860FFF76CFF4FF00060314980395C
:100CC000086010BD70B5002000220223002402211C
:100CD000284D08352D6805F00C0020B1042806D0F9
:100CE000082834D107E02A4D2A4E356033E02A4DDA
:100CF000284E35602FE01F4D2D1D2D68C5F3805403
:100D00001C4D2D1D2D6805F03F0154B1224DB5FB42
:100D1000F1F5184E361D3668C6F3881605FB06F247
:100D200009E01B4DB5FBF1F5124E361D3668C6F3D2
:100D3000881605FB06F20F4D2D1D2D68C5F30145E4
:100D40006D1C6B00B2FBF3F5124E356003E0104DE5
:100D5000104E356000BF00BF064D08352D68C5F345
:100D600003150E4E705D0B4D2D68C540094E356064
:100D700070BD000000380240007000400854400779
:100D8000003C024088ED00E0FFFFF6FE103000243A
:100D90000024F4000C00002000127A001000002053
:100DA0000A2000BF011EA0F10102D0B2FAD17047A3
:100DB00010B51021F84801F00BFC0421F64801F0B1
:100DC00005FCFFF7EDFF1021F34801F0FFFB10BD1C
:100DD00010B51021F04801F0F9FBFFF7E1FF042105
:100DE000ED4801F0F3FBFFF7DBFF0421EA4801F0D7
:100DF000EFFBFFF7D5FF10BD70B5044600251BE0E3
:100E000004F0800020B11021E34801F0DFFB03E093
:100E10001021E14801F0DCFBFFF7C2FF0421DE48AE
:100E200001F0D4FBFFF7BCFF0421DB4801F0D0FB4D
:100E30006006040E681CC5B2082DE1DB70BD10B55C
:100E40001021D54801F0C2FB0421D34801F0BEFBBC
:100E5000FFF7A6FF1021D04801F0BAFBFFF7A0FF73
:100E60000421CD4801F0B4FBFFF79AFF10BD70B527
:100E700005460C46FFF7E3FF7820FFF7BDFFFFF7BD
:100E8000A7FF1CB14020FFF7B7FF02E00020FFF7EB
:100E9000B3FFFFF79DFF2846FFF7AEFFFFF798FF70
:100EA000FFF786FF70BD10B504461CB90021A620CF
:100EB000FFF7DDFF012C03D10021A720FFF7D7FFAB
:100EC00010BD10B504463CB90021C820FFF7CFFF84
:100ED0000021A120FFF7CBFF012C07D10021C0206A
:100EE000FFF7C5FF0021A020FFF7C1FF10BD10B51F
:100EF00000218D20FFF7BBFF00211420FFF7B7FF73
:100F00000021AF20FFF7B3FF10BD10B500218D20E9
:100F1000FFF7ADFF00211020FFF7A9FF0021AE2051
:100F2000FFF7A5FF10BD70B500242BE004F1B00160
:100F3000C8B20021FFF79BFF00210846FFF797FF8B
:100F400000211020FFF793FFFFF779FF7820FFF7CC
:100F500053FFFFF73DFF4020FFF74EFFFFF738FF3D
:100F6000002509E08D4901EBC501085DFFF744FF4D
:100F7000FFF72EFF681CC5B2802DF3DBFFF718FFCB
:100F8000601CC4B2082CD1DB70BD70B500240CE02D
:100F9000002506E00020814901EBC5010855681CC9
:100FA000C5B2802DF6DB601CC4B2082CF0DBFFF765
:100FB000BAFF70BDF0B514460B46CF1701EB57775B
:100FC000C7F3C702CF1701EB5777FF10A1EBC70795
:100FD000FEB20123B340DDB24CB1704B03EBC00352
:100FE0009B5C2B436D4F07EBC007BB541AE06B4B68
:100FF00003EBC0039B5CDB43684F07EBC007BB54AC
:10100000664B03EBC0039B5C2B43644F07EBC007AD
:10101000BB54624B03EBC0039B5CDB435F4F07EBAE
:10102000C007BB54F0BD2DE9FF4F84B081468A460E
:101030000020029083460698A0EB09040798A0EBD5
:101040000A06CDF80490CDF800A0002C01DD0127A0
:1010500005E00CB9002702E04FF0FF376442002E94
:1010600002DD4FF0010806E016B94FF0000802E07B
:101070004FF0FF386642B44201DD254600E03546B8
:10108000002003901EE0009AD1B2019AD0B2119ACA
:10109000FFF790FF029820440290B3440298A842C0
:1010A00005DD0298401B0290019838440190AB4541
:1010B00004DDABEB050B0098404400900398401C06
:1010C00080B20390691C03988842DCDB08B0BDE85D
:1010D000F08F2DE9F04306460F4690460025444622
:1010E00043E03A1BD1B27219D0B20122FFF762FF7E
:1010F0003A1BD1B2721BD0B20122FFF75BFF3A1943
:10110000D1B2721BD0B20122FFF754FF3A19D1B20B
:101110007219D0B20122FFF74DFF7A19D1B23219FC
:10112000D0B20122FFF746FF7A1BD1B23219D0B2FA
:101130000122FFF73FFF7A1BD1B2321BD0B201224E
:10114000FFF738FF7A19D1B2321BD0B20122FFF774
:1011500031FF6D1C05FB05F004FB040008FB1809BA
:10116000B9F1000F01DD641E6D1E6000604308FBD5
:1011700008F18842B5DABDE8F0832DE9FE4F074655
:10118000884692461C460197CDF80080082C07D16E
:101190004FF0060924E0000000100240B8B9012019
:1011A0002046E31704EB5373DB1021464FEAE47C3F
:1011B00004EB5C7C4FEAEC0CA4EBCC0CBCF1000F14
:1011C00002D04FF0010C01E04FF0000C63442246C6
:1011D00004EBD27C4FEA6C0C03FB0CF303F0FF0929
:1011E000AAF12000C6B200255EE0082C07D106EB6C
:1011F0004600FE4901EB400010F805B01DE00C2C44
:1012000007D106EB4600FA4901EB800010F805B063
:1012100013E0102C05D1F74800EB061010F805B0CC
:101220000BE0182C07D106EBC600F34901EB800058
:1012300010F805B001E0BDE8FE8F002002901CE030
:101240000BF0010028B1414638460C9AFFF7B2FE78
:1012500009E00C9808B9012000E000200246414650
:101260003846FFF7A7FE4FEA6B0B08F1010000F0CC
:10127000FF080298401CC0B2029002980828DFDBE9
:10128000781CC7B2082C0BD004EBD4714A1001991A
:10129000791A8A4204D1019F00980830C0B20090A8
:1012A000DDF80080681CC5B24D459EDB00BFC2E77B
:1012B0002DE9F84106460F4614461D46DDF81C8010
:1012C00013E0CDF8008022782B4639463046FFF7F0
:1012D00054FF082D02D1B01DC6B205E0284605EB2B
:1012E000D07106EB6101CEB2641C2078202802DBAD
:1012F00020787E28E5DDBDE8F88110B502460120A2
:1013000000E050430B1EA1F10104E1B2F9D110BD80
:101310002DE9FF4F82B0064691461F46DDE90F4A90
:101320004FF0000B082C01D14FF0020B002530E0EC
:10133000781B401EC1B20A20FFF7DFFFB9FBF0F0B7
:101340000A21B0FBF1F201FB1208B8F1000F0ED137
:1013500004EBD4710BEB610101FB0561C8B22346BC
:101360003022CDE900A40399FFF707FF0FE004EB5B
:10137000D4710BEB610101FB0561C8B208F13001CA
:10138000CAB22346CDE900A40399FFF7F6FE681C14
:10139000C5B2BD42CCDB06B0BDE8F08F2DE9FC4FF5
:1013A0000746884616461C46BB46CDF804802046B4
:1013B000E21704EB5272D2102146E31704EB537389
:1013C000DB10A4EBC3030BB1012300E000231A449C
:1013D000624392B20092002555E0102C05D1874857
:1013E00000EB461010F805A01BE0182C07D106EB07
:1013F000C600834901EBC00010F805A011E0202CC5
:1014000005D1804800EBC61010F805A009E0402C7B
:1014100005D17D4800EB462010F805A001E0BDE8AD
:10142000FC8F4FF000091CE00AF0010028B1414692
:1014300038460B9AFFF7BEFD09E00B9808B901206A
:1014400000E00020024641463846FFF7B3FD4FEA70
:101450006A0A08F1010000F0FF0809F1010000F03C
:10146000FF09B9F1080FDFDB781CC7B2A7EB0B004F
:10147000A04204D15F4601980830C0B20190DDF867
:101480000480681C85B200988542A6DB00BFC6E7D1
:1014900008B5804689469246002600274BE04FB9A2
:1014A0001023324618218020CDF800A0FFF776FFE8
:1014B000701CC6B2464522D14FF0000B1AE0012441
:1014C00010E000250AE0514800EBC400415D601EB9
:1014D0004E4A02EBC0004155681CC5B2082DF2DB34
:1014E000601CC4B2902CECDBFFF71DFD0BF101007A
:1014F00000F0FF0B4FEA09105845E0DC0026781C8D
:10150000C7B2102F00D10027012410E000250AE007
:101510003E4800EBC400415D601E3C4A02EBC00047
:101520004155681CC5B2082DF2DB601CC4B2902C7A
:10153000ECDBFFF7F8FCB2E72DE9FF4F05460E465E
:1015400017461C46DDF838904FF0000A0095B34668
:101550002046E21704EB5272D2102146E31704EB47
:101560005373DB10A4EBC3030BB1012300E0002392
:101570001A44D4B24FF0000858E0002003904EE027
:101580000D9810F80A0002900AF101001FFA80FA83
:10159000002001901DE0029800F0010028B14A46A9
:1015A00031462846FFF706FD0AE0B9F1000F01D1E8
:1015B000012000E00020024631462846FFF7FAFCF1
:1015C000029840100290701CC6B20198401CC0B234
:1015D000019001980828DEDB681CC5B20098281A23
:1015E000B84217D1009D0BF1080011E0BE5500086C
:1015F000E65700085A5C00084A620008A66F000817
:10160000E67100082E720008AE720008B8B9012019
:1016100000F0FF0B5E460398401CC0B20390039895
:10162000B842ADDB08F1010000F0FF08A045A4DBE3
:10163000BDE8FF8F1CB50121182001F0E9F9102049
:10164000009001208DF8040000208DF80600032092
:101650008DF8050001208DF807006946FE4800F06E
:1016600039FF1420009001208DF8040000208DF82F
:10167000060003208DF8050001208DF8070069465B
:10168000F64800F027FF1021F34800F0A1FFC82022
:1016900000F0EAFD1021F04800F098FF0021AE2094
:1016A000FFF7E5FB00210846FFF7E1FB00211020D2
:1016B000FFF7DDFB00214020FFF7D9FB002181204F
:1016C000FFF7D5FB0021CF20FFF7D1FB0021A120A0
:1016D000FFF7CDFB0021C820FFF7C9FB0021A620A2
:1016E000FFF7C5FB0021A820FFF7C1FB00213F2029
:1016F000FFF7BDFB0021D320FFF7B9FB002108460F
:10170000FFF7B5FB0021D520FFF7B1FB00218020BA
:10171000FFF7ADFB0021D920FFF7A9FB0021F12045
:10172000FFF7A5FB0021DA20FFF7A1FB0021122023
:10173000FFF79DFB0021DB20FFF799FB00214020F4
:10174000FFF795FB00212020FFF791FB00210220ED
:10175000FFF78DFB00218D20FFF789FB002114206E
:10176000FFF785FB0021A420FFF781FB0021A620C5
:10177000FFF77DFBFFF709FC0021AF20FFF777FBA8
:101780001CBD30B504460D46AA1ED1B2A21ED0B271
:101790000122FFF70FFC6A1ED1B2A21ED0B20122B5
:1017A000FFF708FCA11EC8B201222946FFF702FC80
:1017B0006A1CD1B2A21ED0B20122FFF7FBFBAA1C09
:1017C000D1B2A21ED0B20122FFF7F4FBAA1ED1B201
:1017D000A21CD0B20122FFF7EDFB6A1ED1B2A21CFF
:1017E000D0B20122FFF7E6FBA11CC8B201222946B4
:1017F000FFF7E0FB6A1CD1B2A21CD0B20122FFF7B6
:10180000D9FBAA1CD1B2A21CD0B20122FFF7D2FB95
:10181000AA1ED1B2A21ED0B20122FFF7CBFBAA1E94
:10182000D1B2621ED0B20122FFF7C4FBA81EC1B222
:1018300001222046FFF7BEFBAA1ED1B2621CD0B225
:101840000122FFF7B7FBAA1ED1B2A21CD0B201221F
:10185000FFF7B0FBAA1CD1B2A21ED0B20122FFF743
:10186000A9FBAA1CD1B2621ED0B20122FFF7A2FBD3
:10187000A81CC1B201222046FFF79CFBAA1CD1B2D2
:10188000621CD0B20122FFF795FBAA1CD1B2A21CA8
:10189000D0B20122FFF78EFB6A1ED1B2621ED0B217
:1018A0000022FFF787FB611EC8B200222946FFF71E
:1018B00081FB6A1CD1B2621ED0B20022FFF77AFB14
:1018C000681EC1B200222046FFF774FB00222946A1
:1018D0002046FFF76FFB681CC1B200222046FFF7CD
:1018E00069FB6A1ED1B2621CD0B20022FFF762FB14
:1018F000611CC8B200222946FFF75CFB6A1CD1B20A
:10190000621CD0B20022FFF755FB30BD30B5044653
:101910000D46AA1ED1B2A21ED0B20022FFF74AFB8A
:101920006A1ED1B2A21ED0B20022FFF743FBA11E55
:10193000C8B200222946FFF73DFB6A1CD1B2A21EA5
:10194000D0B20022FFF736FBAA1CD1B2A21ED0B241
:101950000022FFF72FFBAA1ED1B2A21CD0B2002298
:10196000FFF728FB6A1ED1B2A21CD0B20022FFF7FB
:1019700021FBA11CC8B200222946FFF71BFB6A1CF1
:10198000D1B2A21CD0B20022FFF714FBAA1CD1B224
:10199000A21CD0B20022FFF70DFBAA1ED1B2A21EDC
:1019A000D0B20022FFF706FBAA1ED1B2621ED0B24F
:1019B0000022FFF7FFFAA81EC1B200222046FFF75F
:1019C000F9FAAA1ED1B2621CD0B20022FFF7F2FAD5
:1019D000AA1ED1B2A21CD0B20022FFF7EBFAAA1CB9
:1019E000D1B2A21ED0B20022FFF7E4FAAA1CD1B2F3
:1019F000621ED0B20022FFF7DDFAA81CC1B200229D
:101A00002046FFF7D7FAAA1CD1B2621CD0B200223E
:101A1000FFF7D0FAAA1CD1B2A21CD0B20022FFF765
:101A2000C9FA30BD30B504460D466A1ED1B2621EF9
:101A3000D0B20122FFF7BEFA611EC8B201222946C8
:101A4000FFF7B8FA6A1CD1B2621ED0B20122FFF7CA
:101A5000B1FA681EC1B203E0000C0240001002405F
:101A600001222046FFF7A6FA002229462046FFF76A
:101A7000A1FA681CC1B201222046FFF79BFA6A1E38
:101A8000D1B2621CD0B20122FFF794FA611CC8B235
:101A900001222946FFF78EFA6A1CD1B2621CD0B22D
:101AA0000122FFF787FA30BD1CB501200949402308
:101AB0008022CDE9001000210846FFF73DFD3E21C0
:101AC0004020FFF7AFFF3E215420FFF7ABFFFFF7A9
:101AD0002AFA1CBD2000002010B54FF40051184810
:101AE00000F076FD4FF48041154800F071FD10BD07
:101AF0001CB50121102000F08BFF01208DF804009F
:101B000000208DF806004FF4C040009000208DF8B2
:101B1000070003208DF805006946094800F0DAFC4B
:101B2000FFF7DAFF1CBD10B54FF40051044800F078
:101B30004DFD4FF48041024800F048FD10BD00000B
:101B40000010024010B52DED048BB0EE408AF0EE8F
:101B5000608A9FEDB00B53EC102B51EC180B03F087
:101B600017F841EC190B9FEDAD0B53EC102B03F064
:101B70002BFA41EC100BBDEC048B10BD10B52DED14
:101B8000048BB0EE408AF0EE608A9FEDA20B53EC1E
:101B9000102B51EC180B03F017FA41EC190B9FEDC9
:101BA0009F0B53EC102B02F0F3FF41EC100BBDEC3C
:101BB000048B10BD1FB52DED0A8B84B0109800EB7F
:101BC0008000113010909DED0E1BB0EE410AF0EE3A
:101BD000610AFFF7B7FFB0EE40CAF0EE60CA02F04C
:101BE000DFF9B0EE40AAF0EE60AA109803F085F994
:101BF00041EC1B0B53EC1A2B03F0E6F941EC190BEB
:101C00009FED880B53EC102B03F0EAFB41EC180B13
:101C100002F0FEFECDE900019DED0E1BB0EE410A83
:101C2000F0EE610AFFF78EFFB0EE40BAF0EE60BA58
:101C300002F01AFAB0EE409AF0EE609A109803F0B3
:101C40005CF941EC1A0B53EC192B03F0BDF941EC94
:101C5000180B9FED760B53EC102B03F0E9FACDE94E
:101C600002019DED021BB0EE410AF0EE610A9FED0C
:101C70006F1B53EC112B51EC100B03F0A3FA03D2A2
:101C80009FED6A0B8DED020B9DED000B9DED021B90
:101C900004B0BDEC0A8B1FBD70B52DED028BB0EE0C
:101CA000408AF0EE608A002551EC180B03F0C8F86A
:101CB00004461CB90120BDEC028B70BD03E06D1C15
:101CC0000A2094FBF0F4002CF9D12846F3E700B584
:101CD0002DED108B83B0B0EE408AF0EE608AB0EE4E
:101CE000419AF0EE619AB0EE42AAF0EE62AAB0EE2E
:101CF00043BAF0EE63BA53EC1B2B51EC190B03F013
:101D00006FFB41EC1E0B53EC1B2B51EC190B03F03A
:101D100067FB41EC1F0B53EC1E2B03F055F941EC14
:101D20001C0B53EC1A2B51EC180B03F059FB41EC34
:101D30001E0B53EC1A2B51EC180B03F051FB41EC2A
:101D40001F0B53EC1E2B03F03FF941EC1D0B53EC22
:101D50001C2B02F069FECDE900019DED000B02F0A5
:101D6000E7F903B0BDEC108B00BD10B52DED040BF1
:101D70002DED068B9DED061BB0EE410AF0EE610ADB
:101D80009FED2C1B53EC112B51EC100B03F028FB97
:101D9000CDE906019DED081BB0EE410AF0EE610AA7
:101DA00053EC102B9FED251B51EC110B03F018FB8E
:101DB000CDE908019DED062BB0EE421AF0EE621A55
:101DC0009DED082BB0EE420AF0EE620A01F0F0FF42
:101DD000B0EE40AAF0EE60AA9FED100B53EC102B72
:101DE00051EC1A0B02F0D4FE41EC190B9FED090BDC
:101DF00053EC102B03F0E8F841EC180B9FED050BAA
:101E000053EC102B03F014FA41EC100BBDEC068BD5
:101E10001FBD00000000000000806640182D4454E3
:101E2000FB210940000000000000504000000000BD
:101E300000004F400000000000005540000000007E
:101E400000804F407FB505460C460121084600F052
:101E500028FE0195A0B2ADF800000020ADF8020008
:101E6000ADF8080069464FF0804000F0D2FF012233
:101E70001146900701F06EFC0121880701F052F82D
:101E80001C208DF80C0002208DF80D008DF80E003E
:101E900001208DF80F0003A800F02BFA7FBD10B5CC
:101EA00000201149086000214FF0804000F0FAFF47
:101EB00010BD0D48006870470B4800686421B0FBF6
:101EC000F1F0704710B50121880701F05AFC012894
:101ED00008D105480068401C0349086001218807B3
:101EE00001F060FC10BD0000200400201CB50121A1
:101EF000022000F08DFD01208DF8040000208DF8F7
:101F000006004FF40050009002208DF8050069464D
:101F10003C4800F0DFFA00208DF8040001208DF825
:101F20000600C00200906946364800F0D3FA00224D
:101F30004FF40051334800F04DFB1CBD01203249E5
:101F40000860704700203049086070472E48883884
:101F5000006870470346DB1C991E9A1C192903DC94
:101F6000192A01DB012070471E2903DC1E2A01DB30
:101F70000220F8E7232903DC232A01DB0320F2E710
:101F8000282903DC282A01DB0420ECE72D2903DCC7
:101F90002D2A01DB0520E6E7322903DC322A01DBAA
:101FA0000620E0E7372903DC372A01DB0720DAE7E0
:101FB0003C2903DC3C2A01DB0820D4E70920D2E7D6
:101FC00010B5062000F050F9FFF7B8FF142000F01C
:101FD00003F9FFF7B7FF00BFFFF7B8FF0028FBD0FA
:101FE000FFF75DFF00BFFFF7B1FF0128FBD0FFF750
:101FF00060FF40F64E51484344F62061B0FBF1F0DB
:1020000010BD000000040240B482404230B58BB0E5
:1020100004460D460121022000F043FD012108463F
:1020200000F0F6FCC020099002208DF82800032063
:102030008DF8290000208DF82A0001208DF82B0052
:1020400009A94E4800F046FA022206214B4800F04A
:10205000CCFA02220721494800F0C7FAA8B2ADF82D
:1020600018000020ADF81A000794ADF8200006A96A
:10207000434800F0CEFE6020ADF804000120ADF82A
:1020800006000020ADF8100001A93D4800F056FF01
:1020900001A93B4800F08BFF0821394801F0DBF82B
:1020A0000821374801F0E0F80121354800F01CFF15
:1020B0000121334800F036FF0BB030BD10B52DEDD7
:1020C000068BB0EE408AF0EE608A9FED2E0B53EC4B
:1020D000102B51EC180B02F077FF41EC1A0B9FED1F
:1020E0002B0B53EC102B02F053FD41EC190B02F0BB
:1020F000A7FE00F5FA74204602F0FFFE41EC180B33
:1021000051EC180B02F0CCFE044621461C4801F0AD
:102110006EF8BDEC068B10BD10B52DED088BB0EE42
:10212000408AF0EE608A51EC180B02F071FC41EC31
:102130001B0B9FED180B53EC102B02F045FF41ECED
:102140001A0B9FED160B53EC102B02F021FD41EC06
:10215000190B02F075FE00F69804204602F0CDFE41
:1021600041EC180B51EC180B02F09AFE0446214684
:10217000034801F03EF8BDEC088B10BD00000240A2
:10218000000400400000000000409F4000000000EC
:1021900000E070400000000000509440000000008B
:1021A0000080664010B504466FF0040000F0EEF8C1
:1021B000E11704EB5171C1F3C701394A11701046A0
:1021C000007800EB4001C1EBC0104FF6FF7101EA4F
:1021D000C0003449088010BD0146314A12784A4394
:1021E0004FF0E0235A6100229A611A46126942F0C8
:1021F00001021A6100BF4FF0E022106900F00102F5
:102200001AB100F48032002AF5D04FF0E0221269B2
:1022100022F001024FF0E0231A6100229A61704718
:102220000146204A12884A434FF0E0235A610022B7
:102230009A611A46126942F001021A6100BF4FF01A
:10224000E022106900F001021AB100F48032002A85
:10225000F5D04FF0E022126922F001024FF0E023A6
:102260001A6100229A61704770B504464FF40770F6
:1022700094FBF0F0C6B24FF4077094FBF0F100FB52
:10228000114085B205E04FF40770FFF7C9FF701EDB
:10229000C6B2002EF7D115B12846FFF7C1FF70BDB9
:1022A00024040020260400200948804709480047EC
:1022B000FEE7FEE7FEE7FEE7FEE7FEE7FEE7FEE7F6
:1022C000FEE7FEE704480549054A064B7047000053
:1022D0006D0C00088901000898BE012098C40120F7
:1022E00098C0012098C0012032490143324A116050
:1022F000704770B5002100230F22C4781CB32E4C08
:10230000246804F4E064C4F5E064C4F30721C1F177
:102310000404E3B20A4144789C40E1B2847814405A
:1023200021430C07210E254C05786155047804F0F3
:102330001F050124AC4005786D11AD0005F1E025C5
:10234000C5F8004109E0047804F01F050124AC4001
:102350001B4D0678761145F8264070BD194A0A4093
:102360000243154B1B1F1A60704739B1124A121DE8
:1023700012680243104B1B1D1A6006E00E4A121D24
:10238000126882430C4B1B1D1A607047042808D149
:102390004FF0E021096941F004014FF0E0221161A2
:1023A00007E04FF0E021096921F004014FF0E0223D
:1023B000116170470000FA050CED00E000E400E058
:1023C00080E100E080FFFF1F10B50446984884427A
:1023D00008D10121084600F086FB0021012000F011
:1023E00082FB76E09348844208D10121022000F06C
:1023F0007AFB0021022000F076FB6AE08E488442DE
:1024000008D10121042000F06EFB0021042000F01F
:102410006AFB5EE08948844208D10121082000F06F
:1024200062FB0021082000F05EFB52E084488442F9
:1024300008D10121102000F056FB0021102000F0EF
:1024400052FB46E07F48844208D10121202000F061
:102450004AFB0021202000F046FB3AE07A48844203
:1024600008D10121402000F03EFB0021402000F077
:102470003AFB2EE07548844208D10121802000F00B
:1024800032FB0021802000F02EFB22E070488442C5
:1024900008D10121801500F026FB0021A01500F0D5
:1024A00022FB16E06B48844208D10121401500F060
:1024B0001AFB0021601500F016FB0AE06648844212
:1024C00007D10121001500F00EFB0021201500F0BE
:1024D0000AFB10BDF0B50A4600210023002400BF0E
:1024E0003DE0012505FA01F3156805EA03049C4265
:1024F00034D105684F000326BE40B5430560157909
:102500004E00B5400668354305601579012D02D0AF
:102510001579022D16D185684F000326BE40B543BC
:10252000856055794E00B5408668354385604568BD
:1025300001268E40B5434560456896798E40B6B217
:1025400035434560C5684F000326BE40B543C560AE
:10255000D5794E00B540C6683543C560491C102981
:10256000BFD3F0BD4FF6FF710160002101714171D1
:102570008171C171704708B54FF480320092009AA2
:102580000A430092009AC261C161009AC261C269A5
:102590000092C269009208BD0246002013690B40F8
:1025A0000BB1012000E0002070470146086980B2AD
:1025B00070470246002053690B400BB1012000E038
:1025C000002070470146486980B270470183704718
:1025D000418370470AB1018300E041837047416144
:1025E000704742694A4042617047F0B500230024B9
:1025F0004D07ED0E02FA05F3CE1000F1200555F857
:1026000026504E07F70E0F26BE40B543CF1000F1FF
:10261000200646F82750CE1000F1200555F8265028
:1026200045EA0304CE1000F1200545F82640F0BD30
:10263000000002400004024000080240000C02407A
:10264000001002400014024000180240001C02402A
:10265000002002400024024000280240F94800689F
:1026600040F00100F74908600020F6490831086091
:10267000F4480068F4490840F2490860F348091D2D
:102680000860F348EF4984310860F0481038091DAC
:102690000860EC48006820F48020EA4908600020C7
:1026A000E8490C310860E7498C3108607047002127
:1026B000E44A921C117011460870704710B501462B
:1026C0000022002300204A11012A02D1DD4C236898
:1026D00008E0022A03D1DB4C7034236802E0D94CB5
:1026E0007434236801F01F02012494401C400CB193
:1026F000012000E0002010BD38B50020009000242B
:10270000002500BF3120FFF7D9FF05460098401C87
:1027100000900098B0F5A04F01D0002DF2D03120EC
:10272000FFF7CCFF08B1012400E00024204638BDAB
:1027300001460020C34A106820F0F80040EAC100BA
:1027400010607047C349086070470021BD4A70326D
:1027500011701170012802D004280AD104E001216F
:10276000B84A7032117005E00521B64A7032117016
:1027700000E000BF00BF7047B7490860704770B500
:10278000049C41EA82150126C6EB530645EA06453C
:10279000054345EA0465AB4E361D356070BDAD4955
:1027A00008667047820142EA0172A64B84331A60C0
:1027B0007047A8498866704710B5830143EA0163F2
:1027C00043EA02739F4C8834236010BDA149086717
:1027D0007047A049C864704702460020994B0833EF
:1027E000186820F0EC6042EA01031843954B083367
:1027F0001860704702460020924B0833186820F09A
:10280000784042EA010318438E4B08331860704742
:10281000014600208B4A0832106820F0030008436C
:102820001060704787480830006800F00C0070475F
:1028300001460020834A0832106820F0F000084367
:1028400010607047014600207E4A0832106820F46C
:10285000E05008431060704701460020794A083272
:10286000106820F4604040EAC10010607047F0B585
:10287000002100220024022500260223714F083780
:102880003F6807F00C0121B1042905D0082937D190
:1028900005E0724F076036E0714F076033E0694F23
:1028A0003F1D3F68C7F38056664F3F1D3F6807F0E6
:1028B0003F036EB16A4FB7FBF3F7DFF888C10CF145
:1028C000040CDCF800C0CCF3881C07FB0CF40CE013
:1028D000624FB7FBF3F7DFF86CC10CF1040CDCF8C6
:1028E00000C0CCF3881C07FB0CF4564F3F1D3F681B
:1028F000C7F301477F1C7D00B4FBF5F7076002E0DA
:10290000564F076000BF00BF4E4F08373F6807F0C3
:10291000F0010909534F7A5C0768D7404760494F77
:1029200008373F6807F4E051890A4E4F7A5C4768E0
:10293000D7408760434F08373F6807F46041490B31
:10294000484F7A5C4768D740C760F0BD002100F46B
:102950004072B2F5407F0AD13A4A0832116821F438
:10296000F811414A02401143364A08321160354A93
:1029700070321268C0F30B031A43324B70331A6083
:102980007047354944390860704733494039086019
:10299000704736490860704701460020294A8C324A
:1029A000106820F01F004A1E1043264A8C32106027
:1029B000704701460020234A8C32106820F4F850FA
:1029C0004A1E40EA02201F4A8C32106070470146BE
:1029D00000201C4A8C32106820F44010084310601C
:1029E000704701460020174A8C32106820F44000DE
:1029F00008431060704701460020124A8C3210686C
:102A000020F440300843106070471949086070474F
:102A100039B10C4A3032126802430A4B30331A6023
:102A200006E0084A303212688243064B30331A609F
:102A30007047F9B1034A343212680243014B343310
:102A40001A601CE000380240FFFFF6EA1030002454
:102A50000030002000004742800E47420024F4006E
:102A600000127A0028040020FFFCFF0F5C0147429F
:102A7000E01147428F4A126882438E4B1A607047BA
:102A800039B18C4A121D126802438A4B1B1D1A6011
:102A900006E0884A121D12688243864B1B1D1A608D
:102AA000704739B1834A0C3212680243814B0C33B0
:102AB0001A6006E07F4A0C32126882437D4B0C3369
:102AC0001A60704739B17B4A103212680243794B61
:102AD00010331A6006E0774A103212688243754B51
:102AE00010331A60704739B1724A243A12680243AF
:102AF000704B243B1A6006E06E4A243A1268824307
:102B00006C4B243B1A60704739B16A4A203A12680C
:102B10000243684B203B1A6006E0664A203A12687E
:102B20008243644B203B1A60704739B1614A1C3ABA
:102B3000126802435F4B1C3B1A6006E05D4A1C3A78
:102B4000126882435B4B1C3B1A60704739B1594A8B
:102B5000143A12680243574B143B1A6006E0554A78
:102B6000143A12688243534B143B1A60704739B1D0
:102B7000504A103A126802434E4B103B1A6006E06E
:102B80004C4A103A126882434A4B103B1A60704715
:102B900039B1484A1C3212680243464B1C331A6052
:102BA00006E0444A1C3212688243424B1C331A60CE
:102BB000704739B13F4A2032126802433D4B2033FF
:102BC0001A6006E03B4A203212688243394B2033B8
:102BD0001A60704739B1374A243212680243354BC4
:102BE00024331A6006E0334A243212688243314BA0
:102BF00024331A60704739B12E4A2C3212680243CE
:102C00002C4B2C331A6006E02A4A2C32126882437D
:102C1000284B2C331A60704739B1264A303212687B
:102C20000243244B30331A6006E0224A30321268E5
:102C30008243204B30331A607047012808D11D4968
:102C40003C31096841F008011A4A3C32116007E042
:102C500018493C31096821F00801164A3C321160DC
:102C6000704739B1134A273A12780243114B273B78
:102C70001A7006E00F4A273A127882430D4B273B21
:102C80001A7070470B484030006840F08070094966
:102C900040310860704701460020064A283A126811
:102CA0000A400AB1012000E000207047014926399E
:102CB000087070473438024010B50446FE4884421C
:102CC00008D101210846FFF752FF00210120FFF73C
:102CD0004EFF9DE0B4F1804F08D101210846FFF777
:102CE00035FF00210120FFF731FF91E0F3488442D6
:102CF00008D101210220FFF729FF00210220FFF760
:102D000025FF85E0EE48844208D101210420FFF729
:102D10001DFF00210420FFF719FF79E0E9488442F4
:102D200008D101210820FFF711FF00210820FFF73B
:102D30000DFF6DE0E448844208D101211020FFF727
:102D400005FF00211020FFF701FF61E0DF4884420A
:102D500008D101212020FFF7F9FE00212020FFF7F4
:102D6000F5FE55E0DA48844208D101210220FFF740
:102D7000FEFE00210220FFF7FAFE49E0D54884421A
:102D800009D101210804FFF7F2FE00214FF4803041
:102D9000FFF7EDFE3CE0D048844209D10121480410
:102DA000FFF7E5FE00214FF40030FFF7E0FE2FE0D3
:102DB000CA48844209D101218804FFF7D8FE0021C6
:102DC0004FF48020FFF7D3FE22E0C548844208D1AB
:102DD00001214020FFF7BAFE00214020FFF7B6FE98
:102DE00016E0C048844208D101218020FFF7AEFEE2
:102DF00000218020FFF7AAFE0AE0BB48844207D1E9
:102E000001218015FFF7A2FE0021A015FFF79EFE0D
:102E100010BD00220288A84B98420ED0AC4B9842BD
:102E20000BD0B0F1804F08D0A44B984205D0A44BF2
:102E3000984202D0A34B984204D14FF68F731A40A8
:102E40004B881A43A04B984207D0A04B984204D01D
:102E50004FF6FF431A400B891A4302804B68C36246
:102E60000B880385944B984202D0994B984201D12C
:102E70008B7A03860123838270474FF0FF314160D4
:102E80000021018001814180817270470185828229
:102E900070470A46002101884FF68F73194011438D
:102EA0000180704741627047C16270470146486ABD
:102EB00070470146088D704721B1028842F0020236
:102EC000028004E002884FF6FD731A4002807047CA
:102ED00021B1028842F00402028004E002884FF629
:102EE000FB731A400280704721B1028842F08002D1
:102EF000028004E002884FF67F731A400280704718
:102F000002884FF6F7731A40028002880A43028053
:102F1000704702884FF6FF431A40028002880A4336
:102F20000280704721B1028842F00102028004E071
:102F300002884FF6FE731A400280704770B5002475
:102F400000220023058C4FF6FE7635400584028C66
:102F50008388048B4FF68F752C40B51E2C400D884E
:102F60002C43751E2A408D892A434D882A43524D91
:102F7000A84202D0564DA84213D14FF6F7752A4009
:102F8000CD892A434FF6FB752A408D882A434FF698
:102F9000FF652B404FF6FF552B400D8A2B434D8A82
:102FA0002B43838004838D684563028470BD70B5B4
:102FB000002400220023058C4FF6EF76354005846F
:102FC000028C8388048B48F6FF752C404FF6FF4532
:102FD0002C400D884FF6FF7606EA05252C434FF668
:102FE000DF752A408D8906EA05152A434D8806EAD1
:102FF00005152A43304DA84202D0354DA8421DD1B7
:103000004FF67F752A40CD894FF6FF7606EA051503
:103010002A434FF6BF752A408D8806EA05152A43D4
:103020004FF6FF352B404FF2FF752B400D8A06EA15
:1030300085052B434D8A06EA85052B43838004834F
:103040008D688563028470BD70B500240022002362
:10305000058C4FF6FF6635400584028C8388848B8F
:103060004FF68F752C404FF6FC752C400D882C4385
:103070004FF6FF552A408D894FF6FF7606EA052563
:103080002A434D8806EA05252A430B4DA84202D063
:103090000F4DA84238D14FF2FF752A40CD894FF627
:1030A000FF7606EA05252A434FF6FF352A408D882C
:1030B00006EA05252A4319E000000140000400400B
:1030C00000080040000C00400010004000140040C8
:1030D000000401400040014000440140004801401C
:1030E00000180040001C0040002000404EF6FF7514
:1030F0002B404DF6FF752B400D8A06EA05152B4334
:103100004D8A06EA05152B43838084838D68C56349
:10311000028470BD70B5002200230024058C4EF699
:10312000FF7635400584038C8488828B48F6FF75D2
:103130002A404FF6FF452A400D884FF6FF7606EAF3
:1031400005252A434DF6FF752B408D8906EA053586
:103150002B434D8806EA05352B43FE4DA84202D08D
:10316000FD4DA84208D14BF6FF752C400D8A4FF655
:10317000FF7606EA85152C43848082838D6805647A
:10318000038470BD00210180418081808160818144
:10319000C18101824182704770B50346002000243E
:1031A0001846183001258D40ACB21D8CA5431D84F6
:1031B00009B108290AD100EB610005684FF68F7646
:1031C000354005600568154305600FE00D1FC5F328
:1031D0004E052844056848F6FF76354005600568C9
:1031E0004FF6FF7606EA02263543056070BD41635F
:1031F000704781637047C1637047016470470A4636
:103200000021018B4FF68F731940114301837047E2
:103210000A460021018B48F6FF7319404FF6FF73F1
:1032200003EA02231943018370470A460021818B78
:103230004FF68F7319401143818370470A4600216E
:10324000818B48F6FF7319404FF6FF7303EA0223A0
:103250001943818370470A460021018B4FF6F773AB
:1032600019401143018370470A460021018B4FF238
:10327000FF7319404FF6FF7303EA022319430183DA
:1032800070470A460021818B4FF6F77319401143AE
:10329000818370470A460021818B4FF2FF731940EA
:1032A0004FF6FF7303EA02231943818370470A46EE
:1032B0000021018B4FF6FB731940114301837047C6
:1032C0000A460021018B4FF6FF3319404FF6FF737A
:1032D00003EA02231943018370470A460021818BC8
:1032E0004FF6FB7319401143818370470A46002152
:1032F000818B4FF6FF3319404FF6FF7303EA022329
:103300001943818370470A460021018B4FF67F7372
:1033100019401143018370470A460021018BC1F314
:103320000E014FF6FF7303EA02231943018370472E
:103330000A460021818B4FF67F7319401143818328
:1033400070470A460021818BC1F30E014FF6FF73CF
:1033500003EA02231943818370470A460021018C46
:103360004FF6FD7319401143018470470A4600214E
:10337000018C4FF6F77319401143018470470A46D8
:103380000021018C4FF6DF7319404FF6FF7303EAFB
:1033900002131943018470470A460021018C4FF63D
:1033A0007F7319404FF6FF7303EA02131943018438
:1033B00070470A460021018C4FF6FF5319404FF623
:1033C000FF7303EA02231943018470470A46002170
:1033D000018C4FF2FF7319404FF6FF7303EA02238B
:1033E0001943018470470A460021018C4DF6FF7392
:1033F00019404FF6FF7303EA023319430184704703
:1034000030B5002301248C40A3B2048C9C43048477
:10341000048C02FA01F5ADB22C43048430BD30B502
:10342000002304248C40A3B2048C9C430484048CA9
:1034300002FA01F5ADB22C43048430BD828B4FF209
:10344000FF331A408283828B4FF6FF7303EA012316
:103450001A4382837047F0B50C46154600210022BE
:103460000026078C4EF6FF7C07EA0C070784818B49
:10347000028C4FF6FF7707EA043640F6FF473940E3
:103480004FF6FF7707EA052739434FF6FF7707EA3C
:103490000337394345F6FF773A4046F480573A43BD
:1034A00081830284F0BD828B4FF6F3731A408283CE
:1034B000828B0A4382837047F0B50C461546002183
:1034C00000220026078C4FF6FF6C07EA0C070784E2
:1034D000818B028C4FF6FF7707EA04264FF60C77B4
:1034E00039404FF6FF7707EA03172F4339434FF26E
:1034F000FF573A4046F480773A4381830284F0BD17
:10350000028B4FF2FF331A400283028B4FF6FF7398
:1035100003EA01231A4302837047F0B50C461546AF
:10352000002100220026078C4FF6EF7C07EA0C07EB
:103530000784018B028C4FF6FF7707EA041640F6EA
:10354000FF4739404FF6FF7707EA033739434FF615
:10355000FF7703E0000001400004014007EA05276F
:1035600039434FF65F773A4046F010073A430183FC
:103570000284F0BD028B4FF6F3731A400283028B74
:103580000A4302837047F0B50C461546002100221D
:10359000068C4FF6FE773E400684018B028C4FF678
:1035A0000C7631407E1C06EA03162E4331434FF65B
:1035B000F576324044F00106324301830284F0BDC7
:1035C00070B505460C46208850B92389A2886188C9
:1035D0002846FFF7D8FFE1882846FFF7CBFF25E014
:1035E000208804280AD12389A28861882846FFF709
:1035F00094FFE1882846FFF783FF17E0208808281A
:103600000AD12389A28861882846FFF755FFE188FF
:103610002846FFF748FF09E02389A28861882846E9
:10362000FFF719FFE1882846FFF708FF70BD00216A
:1036300001804180012181800021C180018170478A
:103640002DE9F04105460C4600260127608808B99F
:10365000022600E00026A088012801D1022700E010
:1036600001272088A0B92389A28861882846FFF70E
:103670008AFFE1882846FFF77DFF23893A463146D5
:103680002846FFF74AFFE1882846FFF739FF13E095
:103690002389A28861882846FFF73FFFE1882846F2
:1036A000FFF72EFF23893A4631462846FFF76BFF86
:1036B000E1882846FFF75EFFBDE8F0810146486BD0
:1036C00070470146886B70470146C86B70470146DA
:1036D000086C70470A884B881A438B881A43CB883A
:1036E0001A430B891A434B891A438B891A43A0F852
:1036F000442070470021018041808180C180018188
:1037000041818181704731B1B0F8442042F40042D8
:10371000A0F8442005E0B0F84420C2F30E02A0F85F
:103720004420704721B1828842F00402828004E084
:1037300082884FF6FB731A408280704721B18288DD
:1037400042F00102828004E082884FF6FE731A4044
:10375000828070471AB183890B43838102E0838999
:103760008B43838170478182704702460020138A11
:103770000B400BB1012000E000207047CA430282D9
:10378000704730B50246002000230024158A05EA60
:103790000103958905EA010413B10CB1012000E091
:1037A000002030BDCA430282704741EA0203A0F8FC
:1037B000483070471AB183890B43838102E08389C3
:1037C0008B438381704721B1828842F00802828056
:1037D00004E082884FF6F7731A40828070470189AF
:1037E0004FF6F8721140018170470A4600210189A5
:1037F0004FF68F73194011430181704730B504466D
:103800000D4629462046FFF7F0FF208940F00700CB
:10381000208130BD2DE9F04104460D4616461F4675
:10382000602D06D13B46012231462046FFF775FE4A
:1038300005E03B46012231462046FFF7A4FE29461B
:103840002046FFF7D2FF208940F007002081BDE825
:10385000F08130B50C4600210189C9B24FF6FF75E1
:1038600005EA0325154325432943018130BD2DE990
:10387000F04105460E4617469846002443463A4610
:1038800031462846FFF7E5FF2C894FF6F8700440D3
:1038900044F007044FF68F70044044F070042C810C
:1038A000BDE8F081F0B504460D4616461F463B467E
:1038B000324629462046FFF7CCFF208940F480405D
:1038C0002081F0BD82884FF68F731A4082808288F3
:1038D0000A438280704702894FF6F8731A400281CA
:1038E00002890A430281704702894FF67F731A40AA
:1038F000028102890A4302817047F0B50C461546E1
:103900001E460021002200230189028B038C4FF602
:10391000F877394021434FF6FC473A4040F201170F
:103920003A434FF6DD773B404FF6FF7707EA06173D
:103930002F433B43018102830384F0BD21B1828880
:1039400042F08002828004E082884FF67F731A4042
:1039500082807047A0F85010704710B5203AC0F030
:103960000B80B1E81850203AA0E81850B1E8185080
:10397000A0E81850BFF4F5AF5FEA027C24BFB1E8BD
:103980001850A0E8185044BF18C918C0BDE810402E
:103990005FEA827C24BF51F8043B40F8043B08BF37
:1039A0007047D20728BF31F8023B48BF11F8012BFE
:1039B00028BF20F8023B48BF00F8012B70474FF0AA
:1039C000000200B5134694469646203922BFA0E86F
:1039D0000C50A0E80C50B1F12001BFF4F7AF09077B
:1039E00028BFA0E80C5048BF0CC05DF804EB89006C
:1039F00028BF40F8042B08BF704748BF20F8022BAF
:103A000011F0804F18BF00F8012B704770477047C6
:103A1000704710B500F008F8006810BD10B50446F6
:103A200000F002F8046010BD0048704738BE012065
:103A30000048704738BE01207546FFF7F9FFAE46D3
:103A400005006946534620F00700854618B020B5AA
:103A5000FEF738FCBDE820404FF000064FF00007AD
:103A60004FF000084FF0000B21F00701AC46ACE826
:103A7000C009ACE8C009ACE8C009ACE8C0098D4693
:103A8000704710B50446AFF300802046BDE81040F3
:103A9000FCF7E3BB01491820ABBEFEE7260002009D
:103AA000704703B401984100009850EAC12018BF44
:103AB00004204A0D18BF40F0010040F2FF72B2EB43
:103AC000515F08BF40F00200012808BF052002B086
:103AD000704700000000000070B59B482DED020B00
:103AE0002DED068B079D25F00044A04218DC974879
:103AF000844202DC0AD1069840B19DED060BBDEC74
:103B0000068B02B0BDE8704000F03ABF002DCCBF7C
:103B10009FED8F0B9FED900BBDEC068B02B070BD3F
:103B20008F48A04215DD8F48A042D8BF4FF0FF3428
:103B300058DD9DED060B51EC100BFFF7B2FF04288A
:103B400008BF00F041FF9DED060BBDEC068B02B0F7
:103B500070BD9DED060B51EC100B00F04DFFCDE953
:103B6000060181489FED828BA0423CDD8248A04245
:103B70001FDD00249FED82AB9DED060B53EC1A2B4D
:103B800051EC100B00F050FF9DED060B41EC190BB2
:103B900053EC1A2B51EC100B01F016FA53EC182BC6
:103BA00001F01EFC53EC192B00F0F2FFCDE90601E9
:103BB00049E09DED060B012453EC182B51EC100B42
:103BC00000F032FF9DED060B41EC190B53EC182B66
:103BD00051EC100B01F004FC53EC192B00F0D8FF52
:103BE000CDE906012FE06848A0421FDD02249FEDC9
:103BF000689B9DED060B53EC192B51EC100B01F05B
:103C0000E3F953EC182B00F00FFF9DED060B41EC90
:103C1000180B53EC192B51EC100B01F0E1FB53EC9A
:103C2000182B00F0B5FFCDE906010CE09DED060B69
:103C3000032453EC102B9FED580B51EC100B00F0AC
:103C4000A7FFCDE906019DED060B53EC102B51ECBF
:103C5000100B01F0B9F941EC180B53EC182B01F0E3
:103C6000B3F941EC190B4E480621B0EE490AF0EECB
:103C7000690A784400F070FD53EC182B51EC100BDE
:103C800001F0A2F941EC180B4648B0EE490AF0EEFB
:103C9000690A0521784400F05FFD53EC192B51ECC3
:103CA000100B01F091F941EC100B51EC180B53EC97
:103CB000102B002C0EDA00F0B7FE9DED061B53EC26
:103CC000112B01F081F99DED061B53EC112B01F036
:103CD000AFFA35E000F0A8FE9DED061B53EC112B6A
:103CE00001F072F941EC100B2F48784400EBC4004E
:103CF00090ED001B51EC100B53EC112B01F070FBFD
:103D00009DED061B53EC112B01F06AFB41EC100BEF
:103D10002648784400EBC40090ED001B51EC100BDA
:103D200053EC112B01F084FA41EC100B002DA2BFD3
:103D3000BDEC068B02B070BD51EC100B00F068FEBC
:103D400041EC100B01E70000000010440000F07F80
:103D5000182D4454FB21F93F182D4454FB21F9BF81
:103D60000000DC3F0000203E0000F33F00000000A8
:103D7000000000000000F03F0000E63F00000000EF
:103D80000000000000000040008003400000000030
:103D9000000000000000F83F000000000000F0BF3D
:103DA000A238000058380000E23700009A370000BF
:103DB00070B56B4E2DED040B2DED028B82B0DDF84E
:103DC0001CC0DDE905235C422CF000411C4341EAA4
:103DD000D474049D22F00040B44205D86C422C43B8
:103DE00040EAD474B4420BD99DED061B9DED040B43
:103DF00002B0BDEC028B04B0BDE8704000F0CABD5B
:103E0000ACF14054A4F17F641C430BD0022404EABB
:103E1000AC7444EAD27405439FED538B9FED542B51
:103E200007D015E09DED040B51EC100B00F0DCFD0C
:103E300042E0002C11BF012C9DED040B02B0BDEC43
:103E4000028B04BF04B070BD022C38D0032C3BD0D1
:103E50000B439FED491B9FED4A0B0AD0B14218D18D
:103E6000B04209D121F0804120F0804007910590B7
:103E70000FE0002A15DA10E0434B7B44002C08BF0A
:103E800093ED000B0DD0012C10D0022C17D0032C79
:103E90001AD0B0421DD1002A03DAB0EE410AF0EE8A
:103EA000610A02B0BDEC028B04B070BD93ED000B53
:103EB00051EC100B00F0ACFD41EC100BF1E7B0EE53
:103EC000480AF0EE680AECE7B0EE420AF0EE620A49
:103ED000E7E7401A00153C28C8BF8DED000B19DC40
:103EE000BCF1000FBEBF10F13C0F9FED290B8DED13
:103EF000000B0FDB9DED060B53EC102B9DED040B1F
:103F000051EC100B00F044FE00F076FD00F06CFD6B
:103F1000CDE90001002C08BF9DED000BC1D0012CA4
:103F200010D0022C9FED1C0B53EC102B9DED000BC1
:103F300051EC100B0DD001F053FA53EC182B01F09B
:103F40004FFAB9E7019880F0004001909DED000B19
:103F5000A7E701F045FA53EC182B01F069F9ABE73C
:103F60000000F07F00000000182D4454FB210940A0
:103F7000182D4454FB2109C0182D4454FB21F9BFCE
:103F8000182D4454FB21F93FFA36000000000000D0
:103F90000000000000000000075C143326A6A13CCE
:103FA00010B52F499FED2C1B2DED020B84B0059809
:103FB00020F000408842D8BF9DED040B2DDD29493B
:103FC000884209D1049840B94FF00100FFF726FD5F
:103FD00000F0EAFC06B010BD05DB9DED040B00F01F
:103FE000CFFC06B010BD68469DED040B00F0E0F874
:103FF00010F0030004BF9DED021B9DED000B0CD0E3
:1040000001280ED09DED021B9DED000B022817D05C
:10401000012000F01DFC06B010BD00F0E5FA06B06E
:1040200010BD9DED021B9DED000B012000F010FC6A
:1040300051EC100B00F0ECFC06B041EC100B10BD85
:1040400000F0D2FA51EC100B00F0E2FC06B041ECAB
:10405000100B10BD00000000000000000000000078
:10406000FB21E93F0000F07F10B52F499FED2C1B8D
:104070002DED020B84B0059820F000408842DCBF93
:1040800000209DED040B32DD2849884209D10498B7
:1040900040B94FF00100FFF7C1FC00F085FC06B00D
:1040A00010BD05DB9DED040B00F06AFC06B010BDF1
:1040B00068469DED040B00F07BF810F0030011D072
:1040C000012818D09DED021B9DED000B02281AD08F
:1040D00000F08AFA51EC100B00F09AFC06B041ECAB
:1040E000100B10BD9DED021B9DED000B012000F09B
:1040F000AFFB06B010BD9DED021B9DED000B00F067
:1041000073FA06B010BD012000F0A2FB51EC100BB9
:1041100000F07EFC06B041EC100B10BD000000006A
:104120000000000000000000FB21E93F0000F07FDC
:1041300000B52DED048BB0EE409AF0EE609A83B09E
:1041400051EC190B01F080F841EC180B18EE100A35
:1041500018EE901A8DED008B002818BF012008433F
:1041600020F00040C0F17F6000F1E040C00F14D0AB
:1041700019EE101A19EE900A8DED009B002918BF58
:104180000121084320F00040C0F17F6000F1E040D1
:10419000C00F04BF0120FFF741FCB0EE480A03B096
:1041A000F0EE680ABDEC048B00BD000000000000CA
:1041B0002DE9F14F04462DED020B2DED088B8AB051
:1041C0009FEDE70B80ED020B139EE74826F00045BC
:1041D00085420ADC9DED120B002084ED000B0AB035
:1041E000BDEC088B03B0BDE8F08FE0489FEDE0AB7D
:1041F0009FEDE1BBA84247DDE14F9FEDE39B9FEDC3
:10420000E48B9DED120B53EC1A2B51EC100B002E8E
:104210001CDD01F0E5F841EC100BBD4208D053EC79
:104220001B2B51EC100B01F0DBF8C4E900010BE093
:1042300053EC192B51EC100B01F0D2F853EC182B66
:1042400001F0CEF8C4E900010120C8E700F0ECFB62
:1042500041EC100BBD4208D053EC1B2B51EC100B62
:1042600000F0E2FBC4E900010BE053EC192B51EC28
:10427000100B00F0D9FB53EC182B00F0D5FBC4E970
:1042800000014FF0FF30AAE7C348A84279DB9DED5B
:10429000120B51EC100B00F0AFFB41EC180B9FED33
:1042A000C00B53EC102B00F08FFE9FEDBF1B53ECA7
:1042B000112B00F0B9FB00F0C3FD074600F01DFE16
:1042C00041EC190B53EC1A2B00F07EFE53EC182B2B
:1042D00000F0AEFF41EC180B53EC1B2B51EC190B0B
:1042E00000F072FEDFF8C8A241EC100B4FEA15583F
:1042F0000125FA4453EC102B51EC180B01F070F827
:10430000032DC4E900013DD0C1F30A5005EB45116E
:10431000A8EB00001139814234DA0AEB051BB0EE3C
:1043200048AA9BED000BF0EE68AA53EC102B51EC61
:10433000190B00F049FE41EC1B0B51EC1A0B53EC2E
:104340001B2B01F04DF841EC180B51EC1A0B53EC00
:10435000182B01F045F853EC1B2B01F041F89BEDB5
:10436000020B41EC1A0B53EC102B51EC190B00F023
:104370002BFE53EC1A2B01F033F841EC100B6D1CA3
:10438000B8E70EE0002EA8BF3846BFF628AF94ED80
:10439000000B51EC100B00F03BFBC4E9000178422C
:1043A0001DE7C6F3130040F4801EC6F30A50A0F2C6
:1043B000F530471100F01F05C5F12000DDF848B0C9
:1043C00008900020069007900520EC467949002DC2
:1043D00007EB0002794408BF51F8221009D051F8C8
:1043E000223001EB8201AB404A68089922FA01F1C0
:1043F0001943A1FB0E26A1FB0B131A449A4234BFAA
:104400000123002303EB06080CEB8003D3E901A68C
:104410000E448E4234BF0121002192448A4411B1DE
:10442000924502D903E0924501D2012100E000212A
:10443000C3E901A641444CF82010011EA0F101007F
:10444000C4DC029800F10050850F0298DDE9036793
:104450008000DDF8148000F050FD41EC1A0B30466E
:1044600000F062FD9FED541B53EC112B00F0ACFDEE
:1044700041EC1B0B384600F057FD9FED511B53ECF0
:10448000112B00F0A1FD41EC180B404600F04CFD53
:104490009FED4D1B53EC112B00F096FD41EC190BD9
:1044A00051EC180B53EC192B00F0BEFA53EC1B2BFC
:1044B00000F0BAFA53EC1A2B00F0B6FACDE9080175
:1044C000002008909DED080B53EC1A2B51EC100BBB
:1044D00000F086FF53EC1B2B00F082FF53EC182BEF
:1044E00000F07EFF53EC192B00F0A2FE9FED381B6D
:1044F00053EC112B00F068FD9FED370B41EC180BCE
:1045000053EC102B9DED080B51EC100B00F05CFDF3
:1045100053EC182B00F088FA9FED310B41EC180B8F
:1045200053EC102B9DED080B51EC100B00F04CFDE3
:1045300053EC182B00F078FA41EC100B139810F0A4
:10454000004F06D06D4251EC100B00F061FA41ECC7
:10455000100B284684ED000B41E60000000000002F
:104560000000000000000000FB21E93F7CD9024070
:1045700000004054FB21F93F3163621A61B4D03D21
:10458000FB21F93F000000000000601A61B4D03D3B
:104590007370032E8A19A33BFB21394100000000F0
:1045A00083C8C96D305FE43F000000000000E03FB9
:1045B0008A320000D8310000000000000000103EE8
:1045C000000000000000103C000000000000103A55
:1045D000182D4454FB21F93D3326A611460B113CFE
:1045E00000000054FB21F93D10B52DED040B2DED1D
:1045F000088B82B0B0EE419AF0EE619A0B9820F0F1
:1046000000449FED4BABB4F1795F11DA9DED0A0BDD
:1046100051EC100B00F014FC002801BFB0EE4A0A68
:10462000F0EE6A0A02B0BDEC088B04BF04B010BD06
:104630009DED0A0B53EC102B51EC100B00F0C4FC59
:1046400041EC180B3C480621B0EE480AF0EE680A2F
:10465000784400F081F853EC182B51EC100B00F06B
:10466000B3FC9DED0A0B41EC1B0B53EC192B51ECE9
:10467000100B00F0A9FC41EC190B53EC1B2B51EC77
:10468000180B00F0A1FC53EC192B00F0A9FE9FEDD4
:104690002C0B41EC190B53EC102B51EC180B00F0C8
:1046A00093FC41EC100B2848844210DA53EC192B90
:1046B00051EC100B00F094FE53EC1A2B00F0B8FDF7
:1046C00041EC100B02B0BDEC088B04B010BD1F48CC
:1046D000A042BCBF9FED1E1B8DED001B06DBA4F5A9
:1046E00000100190002000909DED001B51EC100B7C
:1046F00053EC112B00F074FE9DED000B41EC180BF8
:1047000053EC102B51EC1A0B00F06AFE41EC1A0B23
:1047100053EC192B51EC180B00F062FE53EC1A2BE2
:1047200000F086FD41EC100BCCE70000000000001B
:10473000000000000000F03FF42E00000000000028
:10474000000000000000E03F3333D33F0000E93FAA
:10475000000000000000D23F70B504462DED028B32
:104760004D1E00EBC500B0EE408AF0EE608A90ED81
:10477000000B35F0060017D053EC182B51EC100B42
:1047800000F022FC41EC100B6D1E04EBC50090ED17
:10479000001B51EC100B53EC112B00F045F941ECD0
:1047A000100B35F00600E7D1022D36D0042D1CD0B9
:1047B000062D1CBFBDEC028B70BD53EC182B51ECC9
:1047C000100B00F001FC94ED0A1B53EC112B00F0D0
:1047D0002BF953EC182B00F0F7FB94ED081B53EC6E
:1047E000112B00F021F941EC100B53EC182B51EC7C
:1047F000100B00F0E9FB94ED061B53EC112B00F0BD
:1048000013F953EC182B00F0DFFB94ED040B53EC81
:10481000102B00F009F941EC100B53EC182B51EC64
:10482000100B00F0D1FB94ED021B53EC112B00F0A8
:10483000FBF853EC182B00F0C7FB94ED001B53EC76
:10484000112B00F0F1F8BDEC028B41EC100B70BDA8
:1048500031B504462DED040B2DED0A8BB0EE41BAB7
:10486000F0EE61BA0B989DED0A0B20F00040B0F11C
:10487000795F0DDA51EC100BFFF713F9042808BF2C
:1048800000F0A2F89DED0A0BBDEC0A8B05B030BD1F
:1048900053EC102B51EC100B00F096FB41EC180B75
:1048A0009DED0A0B53EC182B51EC100B00F08CFB18
:1048B00041EC190B2C48B0EE480AF0EE680A0521CD
:1048C0007844FFF749FF9FED2ACBB0EE40AAF0EE07
:1048D00060AA9CB353EC1C2B51EC190B00F074FB39
:1048E00041EC1C0B53EC1A2B51EC190B00F06CFB38
:1048F0009FED210B41EC190B53EC102B51EC1B0BD2
:1049000000F062FB53EC192B00F06AFD53EC182BFE
:1049100000F05AFB53EC1B2B00F062FD53EC1C2BF8
:1049200000F05EFD9DED0A1B53EC112B00F080FCA6
:10493000BDEC0A8B05B041EC100B30BDFFE753EC2A
:104940001A2B51EC180B00F03FFB53EC1C2B00F022
:104950006BF853EC192B00F037FB9DED0A1B53EC61
:10496000112B00F061F8E3E7842D00000000000047
:10497000495555555555C5BF000000000000E03FA2
:1049800010B553EC102B51EC100B00F04DF841EC2E
:10499000100B10BD10B553EC112B51EC100B00F0A7
:1049A00043F841EC100B10BD9FED050B10B553EC17
:1049B000102B51EC100B00F0EBF841EC100B10BD7C
:1049C00000000000000000009FED050B10B553EC47
:1049D000102B51EC100B00F0F7FA41EC100B10BD4E
:1049E000000000000000001010B541EC100BFFF7B4
:1049F00073F851EC100B10BD82B0CDE9000121F02D
:104A0000004001909DED000B02B051EC100B70477F
:104A100081F00041704780F00040704721F0004174
:104A2000704720F00040704710B591EA030F48BF6F
:104A300083F0004300F1DC84841A71EB030C05D28F
:104A4000121943EB0C03001B61EB0C01DFF824E1AE
:104A50004FEA1154A4EB135C1EEA430F18BF9EEA01
:104A6000445F73D023EA0E03DCF1200E21EA0451E7
:104A700043F4801332D322FA0CFE10EB0E0023FA1B
:104A80000CFE41EB0E01CCF1200E03FA0EFE10EBF2
:104A90000E0051F10001B1F5801FCCF1200E32D291
:104AA00001EB045112FA0EF2BDE8104058BF7047F6
:104AB000401C38BF5FEA420218BF7047002814BF8D
:104AC00020F0010041F100014FEA410313F5001FFE
:104AD00038BF7047A1F1C04100F06EBB012A43EB23
:104AE0000302ACF1200CDCF11F0E32BF4FF0000EC0
:104AF00023FA0CF310EB030041EB0451B4EB115F0C
:104B0000D0D0A1EB045101F5801149085FEA3000D3
:104B100001EB04510ED350F1000038BF12FA0EFE23
:104B200008D1BDE81040C9E7401C38BF5FEA420227
:104B3000CAD1C3E7BDE810404FEA410313F5001F97
:104B400038BF7047A1F1C04100F036BB9EEA445F18
:104B500008D011EA5E0FBDE8104004BF01F000412B
:104B600000207047BDE8104070B500F0D7FA00BFD4
:104B700064FBBE3E0000E0FF491058BFC1F1404158
:104B80005B1058BFC3F140438B42EFF30080704786
:104B90002DE9C04130B4DFF8A0C23CEA111418BFBF
:104BA0003CEA131400F0EC8081EA03051CEA1114BE
:104BB00044EAD57418BF1CEA131500F0C780A4EBB3
:104BC00005044FF0004545EAC12145EAC32341EA07
:104BD000505143EA525304F17F74994204F5003472
:104BE0004FEAC0204FEAC22208BF904200F09C80EA
:104BF0004FEA13650FF24016765D4FEA134506FB48
:104C000005F7C7F1807706FB07F74FEAD737A7FB11
:104C100003687642C8F58038A7FB06CE38BFA8F1F6
:104C2000010807FB08E64FF0000EA6FB028CE6FB2E
:104C300003CEDCF1000CCEF1004E38BFAEF1010E18
:104C4000A6FB0C584FF000074FF00005E6FB0E875F
:104C5000A1FB08C6A0FB07CE16EB0E0645F100052A
:104C6000E1FB076515F1E04E7EBFA4F580345FEAF5
:104C700046066D4116F1800745F100054FEA1727FA
:104C80004FEA066647EA0567A6F1DE46B6F1805FA1
:104C90004FEA15251FD9384624F0010C05EBC471E5
:104CA000BCF1FE6F01EB0C1102D8F0BCBDE8008135
:104CB00024425CBF01F5801E9EEAC47F02D4F0BC92
:104CC000BDE80081244238D4F0BCA1F1C041BDE868
:104CD000004100F071BA4FEAD22242EA43524FEA51
:104CE000D323A7FB02864FEAD02040EA415007FBBE
:104CF00003661EEA0E0F4FEAD12105FB026658BF7C
:104D0000A6EB0056B6EB00564FEA520E4EEAC37EB3
:104D100018EB0E0E56EB530EBDD518EB02085E4194
:104D20007F1C55F10005B6E74FF480154FF00007E2
:104D30004FF000064FF00008ADE7F0BC4FF0000068
:104D400001F1C04101F00041BDE8008111EA0C1FF2
:104D50000CEA131500D00CE013EA0C1F00F02580BC
:104D60004FF00000F0BC81EA030101F00041BDE812
:104D70000081F0BCBDE8004181EA030100F01CBAEB
:104D8000F0BCBDE8004170B500F0C8F9097EFC3EFA
:104D900000F007B881EA03014FF0000001F0004184
:104DA000704781EA030100F007BAF0BCBDE800419A
:104DB0004FF0000021497047FFFDFBF9F7F5F4F2D1
:104DC000F0EEEDEBE9E8E6E4E3E1E0DEDDDBDAD8A6
:104DD000D7D5D4D3D1D0CFCDCCCBCAC8C7C6C5C404
:104DE000C2C1C0BFBEBDBCBBBAB9B8B7B6B5B4B31B
:104DF000B2B1B0AFAEADACABAAA9A8A8A7A6A5A406
:104E0000A3A3A2A1A09F9F9E9D9C9C9B9A999998C9
:104E10009797969595949393929191908F8F8E8E6C
:104E20008D8C8C8B8B8A89898888878786858584F9
:104E300084838382828181800000FF070000F87FE5
:104E40004FEA41034FEA5353A3F58063D3F11E03A6
:104E5000C8BFD3F1210C0CDD4FF0004242EAC12261
:104E600042EA505232FA03FC8CEAE17CACEBE1708E
:104E70007047102BC4BF0020704703F5787CBCF14D
:104E8000FF3F04D06FF0004282EA2100704770B506
:104E900000F044F94992248000207047F2E70000B6
:104EA0004FEA1153A3F58063D3F11E03A8BFD3F1DA
:104EB000200C08DB4FF0004242EAC12252EA505275
:104EC00032FA03F0704709420BD4102BC4BF002004
:104ED000704703F5787CBCF1FF3F05D04FF0FF3001
:104EE00070474FF00000704770B500F017F900BF31
:104EF0004992248000207047F0E710F0004248BF3C
:104F00004042B0FA80F310FA03F10AD0C3F11D0356
:104F100003F580634FEA415002EB035202EBD121CB
:104F200070474FF000007047B0FA80F310FA03F1B9
:104F30000AD0C3F11D0303F580634FEA41504FEAE5
:104F4000035202EBD12170474FF000007047000080
:104F500051EA030C17D41CF5801F58BFBCF5801F05
:104F600000F10680994218BF704708BF9042704711
:104F700007D711F5801F58BF13F5801F19D4994228
:104F80007047894270471CF5801F08D5BCF5801F0B
:104F9000F7D58B4218BF704708BF824270474FF465
:104FA000001C1CEB410F38BF1CEB430F01D28B429E
:104FB000704770B500F0B2F8922449004FF00051EC
:104FC0004FF08053FFF7D8BDDFF848C170B51CEA39
:104FD000111E1EBF1CEA13159EEA0C0F95EA0C0F5A
:104FE00000F06F8081EA030423EA4C134EEAD47E7A
:104FF00021EA4C1141F4801143F48013AE44A1FB2B
:10500000024CA0FB0365AEF17F7E361955EB0C0513
:10501000A1FB034C4CF10003A0FB021C16EB0C0699
:10502000654153F10003094218BF46F0010613F42D
:10503000007F0BD14FEA03314FEA0530340341EAD8
:10504000155140EA16506FF003020AE04FEAC321FF
:105050004FEAC520F40241EA555140EA56506FF03C
:10506000020202EB2E4201EB025585EACE710AD014
:105070005FEA440C18BF24F0004450F1000041F1F5
:10508000000120EAD47040F2FE7C624500D270BD7F
:10509000A84214BF4FF080444FF04044002E08BF98
:1050A0000024BEF1806FA8BFA1F1C041BDE87040EF
:1050B00080F282804FF0000001F1C04101F0004118
:1050C00070479EEA0C0F0CEA131518BF95EA0C0FF7
:1050D00006D04FF0000081EA030E0EF0004170BDD3
:1050E00000F01CF88900013E00F007B800F009B894
:1050F0004FEA430C5FEA5C5C08D081EA030100F0F0
:105100005BB84FEA410C5FEA5C5CF6D14FF00000FF
:10511000014970470000FF070000F87F0EF1020E02
:105120002EF0030E5EF8046B364205D4012A43EBE1
:10513000030515F5001F12D8012841EB010C1CF5E1
:10514000001F0CD80ED14FEAD17C15F5001F0CEBD7
:105150004C0C0CF1020C08BF4CEBD37C04E04FF07C
:10516000080C01E04FEAD37C0CEB4C0526FA05F65F
:1051700006F00706B6F1040C06D20EEB860CBDE86D
:1051800070404CF0010C6047DFE80CF0090B0202A4
:105190004FF000414FF00000A1F5002170BD19460D
:1051A0001046012851EB010418BFD4F5001484BF48
:1051B000002001F0004170BD0808A0F500114FEA81
:1051C0003101704753EA010C17D41CF5801F58BFFA
:1051D000BCF5801F00F106808B4218BF704708BFE6
:1051E0008242704707D713F5801F58BF11F5801F03
:1051F00019D48B4270479B4270471CF5801F08D51D
:10520000BCF5801FF7D5994218BF704708BF904280
:1052100070474FF4001C1CEB430F38BF1CEB410FD1
:1052200001D2994270470FB40CBC03BCFFF7C1BE5A
:1052300091EA030F10B581F000413FF5FDAB83F01B
:10524000004300F0D5B800002DE9F04101F5801CC5
:10525000BCF5001FC0F2A9804FEA115C21EA0C5195
:105260000CF1FD0C41F480115FEA5C0C0CF5C07C84
:1052700001D34000494130A4890241EA905187029C
:105280008E0E0A0CA45D04FB04F602FB06F6C6F1C2
:105290004046A4FB0662F60D46EA422606FB06F4EB
:1052A000A4FB01235242C3F1404338BF5B1EA6FB5F
:1052B00002420024E6FB0324D20B42EA4446A6FB4A
:1052C0000623A1FB02E2A3FB07E4E3FB6142644285
:1052D000C2F1404E38BFAEF1010EA6FB04234FF0E1
:1052E0000002E6FB0E32A2FB03463400E2FB6264DE
:1052F000A1FB06E6A4FB07E8E4FB61687642C8F17F
:10530000405838BFA8F10108A2FB06E4A3FB08E55A
:10531000E2FB6854A1FB05E6A7FB04E8E1FB648619
:1053200018F1200556F10006A809A8F11B08B109DB
:1053300008F03F08B8F10A0F40EA86601CD901EB7B
:105340000C51BDE8F08100BFFCF5EEE8E2DDD8D3FA
:10535000CFCBC7C3C0BDB9B6B4B1AEACA9A7A5A3E6
:10536000A19F9D9B9A9896959392908F8D8C8B89F7
:105370008887868584838281A0FB006800FB01F218
:1053800008EB4208B8EB872807D5341858EB01041E
:10539000D5D5401C51F10001D1E7341A78EB010456
:1053A000CDD4401E71F10001C9E75FEA4C0C5FEA01
:1053B0009C5C0DD105D34FF0000001F00041BDE829
:1053C000F081BDE8F04170B5FFF7A8FE6DDBFFBED0
:1053D000BDE8F0414FF00000004970470000F87F41
:1053E00010B591EA030F48BF83F000433FF524ABAB
:1053F000841A71EB030C07D212198CF0004C43EBAA
:105400000C03001B61EB0C01DFF8A4E14FEA11541F
:10541000A4EB135C1EEA430F18BF9EEA445F00F042
:10542000B08023EA6E03524221EA0451C3EB6E03BB
:1054300038BF5B1EDCF1200E25D322FA0CFE10EBE8
:105440000E0043FA0CFE41EB0E01CCF1200E03FAE4
:105450000EFE10EB0E0051F10001CCF1200E29D40C
:1054600012FA0EF201EB0451BDE8104058BF70472C
:10547000401C1CBFB2F1004F704700280CBF491CF4
:1054800020F00100704712EB020E43EB030218BF3D
:105490004FF0010E4EEA4202ACF1200CDCF11E0E80
:1054A00054D943FA0CFE10EB0E0051F1FF31CCF150
:1054B0001E0ED5D50EF1010E12FA0EFE404141EB43
:1054C000010101EB445C5FEA5C5C10D910EBDE701B
:1054D00001EB045138BFBEF1004FBDE8104018BFCA
:1054E000704700280CBF491C20F00100704730D2E3
:1054F0004FEAD42C11F5001124F400641BD0B1FA4A
:1055000081F20B3AA41AA41ED2F12003914030FA82
:1055100003F31943904001EBCC71002C01EB0451D3
:10552000BDE81040A8BF704701F1C0414FF0000036
:1055300001F000417047B0FA80F310FA03F100D196
:1055400010BDE41A173C4805C90AE4E701EB045111
:1055500010BD491001EB0451BDE810404FEA300086
:1055600002E04FF0000170474A0008BF0042F8D047
:10557000B2F5001F28BF704701F000414FF0000056
:1055800070479EEA445F07D011EA5E0FBDE8104005
:1055900004BF002100207047BDE8104070B5FFF740
:1055A000BDFD00BF40DFF63E83F00041104670476E
:1055B0000000E0FF4FF04070E1EE100A704700007D
:1055C000000000000000002F00000000070007009E
:1055D00000147F147F1400242A7F2A1200626408BA
:1055E0001323003649552250000005030000000037
:1055F0001C224100000041221C000014083E081437
:105600000008083E0808000000A060000008080824
:105610000808000060600000002010080402003E3E
:105620005149453E0000427F4000004261514946D9
:10563000002141454B31001814127F1000274545C9
:105640004539003C4A4949300001710905030036DB
:105650004949493600064949291E000036360000EE
:1056600000005636000000081422410000141414F3
:1056700014140000412214080002015109060032EE
:105680004959513E007C1211127C007F494949362C
:10569000003E41414122007F4141221C007F494997
:1056A0004941007F09090901003E4149497A007FCB
:1056B0000808087F0000417F4100002040413F0171
:1056C000007F08142241007F40404040007F020CD0
:1056D000027F007F0408107F003E4141413E007F71
:1056E00009090906003E4151215E007F091929463A
:1056F0000046494949310001017F0101003F404016
:10570000403F001F2040201F003F4038403F0063C3
:1057100014081463000708700807006151494543E5
:1057200000007F41410000552A552A5500004141A3
:105730007F0000040201020400404040404000009D
:1057400001020400002054545478007F4844443837
:1057500000384444442000384444487F00385454BE
:10576000541800087E0901020018A4A4A47C007F3C
:10577000080404780000447D4000004080847D00DF
:10578000007F102844000000417F4000007C041886
:105790000478007C0804047800384444443800FC51
:1057A000242424180018242418FC007C080404086D
:1057B00000485454542000043F444020003C4040E2
:1057C000207C001C2040201C003C4030403C004419
:1057D00028102844001CA0A0A07C004464544C4421
:1057E0001414141414140000000000000000000041
:1057F00000000000FC000000000002000000000C9F
:10580000020C020000000000000090D0BCD0BC9050
:105810000003000300001824FE448C00030207026A
:1058200001001824D8B04C80000300010201C038E8
:10583000E438E00001020201020208060000000054
:10584000000000000000000000F804020000000159
:105850000204000204F8000000040201000090604D
:10586000F86090000000010000002020FC202000D3
:105870000000010000000000000000000806000019
:105880000000202020202000000000000000000078
:10589000000000000002000000000080601C020008
:1058A000040300000000F8040404F80001020202EE
:1058B00001000008FC000000000203020000188440
:1058C0004424180003020202020008042424D80021
:1058D00001020202010040B088FC800000000003C9
:1058E00002003C242424C400010202020100F82426
:1058F000242CC0000102020201000C04E41C04007C
:10590000000003000000D8242424D8000102020271
:10591000010038444444F800000302020100000082
:105920001000000000000200000000002000000045
:105930000000060000000020508804020000000063
:105940000102909090909000000000000000000282
:10595000048850200002010000001804C42418002C
:10596000000002000000F804E494F80001020202C2
:10597000020000E09CF0800002030000030204FC2F
:105980002424D800020302020100F80404040C00DD
:1059900001020202010004FC0404F80002030202F6
:1059A000010004FC24740C0002030202030004FC46
:1059B00024740C00020302000000F0080444CC40F0
:1059C00000010202010004FC2020FC04020300008C
:1059D00003020404FC0404000202030202000004A7
:1059E00004FC040406040403000004FC24D00C049A
:1059F00002030200030204FC04000000020302028E
:105A00000203FC3CC03CFC0003000300030004FC58
:105A100030C4FC04020302000300F8040404F8008C
:105A200001020202010004FC242418000203020007
:105A30000000F8848404F80001020207050004FC59
:105A400024649800020302000302182424448C00FA
:105A50000302020201000C04FC040C000002030219
:105A6000000004FC0000FC04000102020100047CB0
:105A700080E01C040000030000001CE03CE01C006F
:105A8000000300030000049C609C04000203000368
:105A90000200041CE01C04000002030200000C844D
:105AA000641C04000203020203000000FE02020064
:105AB000000007040400000E30C0000000000001D8
:105AC0000200000202FE00000004040700000004BF
:105AD00002040000000000000000000000000000C0
